:1000000012C050C120C01FC01EC01DC01CC01BC0DC
:100010001AC0CAC118C017C016C015C014C013C07A
:1000200012C011C010C011241FBECFE5D4E0DEBF46
:10003000CDBF20E0A0E6B0E001C01D92A238B2071B
:10004000E1F702D0E9C1DCCF8FE18093770093E044
:10005000909378002DE22093790027E220937A0094
:1000600023E320937B0026E320937C002EE3209360
:100070007D0090937E002FE320937F0037E3309341
:1000800080008093810081E080936C0010926D006D
:1000900080936E0080936F001092700080937100C7
:1000A0008093720080937300809374008093750036
:1000B0008093760088EF81BB27BB80E184BB85E01D
:1000C00083BF86EA82BF929A85B38F6085BB95BF56
:1000D00080E48BBF78940F2EF7E6EF2EF0E0FF2E32
:1000E000F02D08E610E0C9E6D0E0EAE6F0E00F2ED9
:1000F000FCE9DF2EF02D0F2EF8E1BF2EF02D0F2E94
:10010000FFE0CF2EF02D80916400882371F0D8019C
:100110008C91D7018C938881D8018C9380818883BE
:1001200080916B008083109264008091620088232C
:1001300009F44FC040916500509166009A013695D0
:1001400027953695279536952795A5ECB0E258D199
:10015000929582958F7089279F708927982ED70155
:100160008C93880FA82EAA0CAA0CA80E9A0136957B
:10017000279536952795ABE7B4E142D196958795BB
:10018000B82FBA19AB2ED801AC929A01ADECBCECE9
:1001900037D19695879596958795969587959D9C49
:1001A000800D11249A2D990F292F220F220F920FC3
:1001B000891B88839B9C400D1124AD9C400D11240C
:1001C000880F982F990F990F890F481B4083109221
:1001D000620080916300882349F0D7011C92D80106
:1001E0001C9218821082C5BA1092630080916B0035
:1001F0008B3008F088CFD7018C9190E0DC01A459B6
:10020000BF4F2C91B0E82B9F900111242C6022BB92
:10021000DC01A958BF4F8C9188BB83E397E001971D
:10022000F1F7D8018C9190E0DC01A459BF4F2C91DB
:10023000B0E82B9F90011124246122BBDC01A95856
:10024000BF4F8C9188BB83E397E00197F1F78881DA
:1002500090E0DC01A459BF4F2C91A0E82A9F9001A7
:100260001124246222BBDC01A958BF4F8C9188BBAA
:1002700083E397E00197F1F7808190E0DC01A459D6
:10028000BF4F2C91A0E82A9F90011124246422BB27
:10029000DC01A958BF4F8C9188BB83E397E001979D
:1002A000F1F731CF1F920F920FB60F9211242F93B7
:1002B0003F934F935F938F939F93EF93FF9383B3FA
:1002C0008F7080936B0090916100911109C08B3009
:1002D00020F481E0809364005AC01092640003C04F
:1002E0008B3008F454C08B3041F481E0809363007C
:1002F00019BE86EA82BF1092610080916B008C303B
:1003000009F040C081E080936100E7E6F0E08BE611
:1003100090E020812A3009F410823196E817F9071D
:10032000C1F72091670088EE93E0289FA001299FE4
:10033000500D11248091680094E6899F400D511D55
:1003400011248091690090E09C01220F331FC901A4
:10035000880F991F880F991F280F391FCA01820F14
:10036000931F20916A00820F911D909366008093E5
:100370006500892B29F089B7816089BFAC9A02C0DA
:10038000109261008AE080936B0010926400FF91EC
:10039000EF919F918F915F914F913F912F910F908E
:1003A0000FBE0F901F9018951F920F920FB60F92CD
:1003B00011248F939F93809160008F5F80936000E2
:1003C0008832A9F48091650090916600019790931E
:1003D000660080936500892B29F419BE1092610094
:1003E0008FE085BB81E0809362001092600086EA16
:1003F00082BF9F918F910F900FBE0F901F90189505
:10040000A29FB001B39FC001A39F01D0B29F700D06
:0C041000811D1124911D0895F894FFCF68
:00000001FF
