S01000004C454420546573742E737265637F
S113000012C059C120C01FC01EC01DC01CC01BC0CF
S11300101AC0D3C118C017C016C015C014C013C06D
S113002012C011C010C011241FBECFE5D4E0DEBF42
S1130030CDBF20E0A0E6B0E001C01D92A238B20717
S1130040E1F702D0F2C1DCCF8FE18093770093E037
S1130050909378002DE22093790027E220937A0090
S113006023E320937B0026E320937C002EE320935C
S11300707D0090937E002FE320937F0037E330933D
S113008080008093810081E080936C0010926D0069
S113009080936E0080936F001092700080937100C3
S11300A08093720080937300809374008093750032
S11300B08093760088EF81BB27BB80E184BB85E019
S11300C083BF86EA82BF929A85B38F6085BB95BF52
S11300D080E48BBF78940F2EFCE9CF2EF02D0F2EE9
S11300E0F8E1BF2EF02D0F2EF8E64F2EF0E05F2E34
S11300F0F02D0F2EF7E6EF2EF0E0FF2EF02DC9E6DF
S1130100D0E00F2EFAE62F2EF0E03F2EF02DD12C6A
S113011010916B0040916500509166009A013695EC
S113012027953695279536952795A5ECB0E271D19C
S1130130929582958F7089279F708927982E880FB2
S1130140882E880C880C880E9A013695279536954A
S11301502795ABE7B4E15DD196958795282F2819AB
S1130160822E822F880F782E770C770C780E9A01C6
S1130170ADECBCEC4ED19695879596958795969562
S113018087959C9C800D11248719982F990F792E9F
S1130190770C770C790E9B9C400D11248C9C400DA0
S11301A01124A0916400F2013081F701508128816B
S11301B0F10190817091620060916300B12F471941
S11301C0AA2329F0532F322F292F9B2FAD2D7723CC
S11301D029F0942F282F592D382D7D2D662329F0B1
S11301E06D2D9D2D2D2D5D2D3D2D1B3048F7A0939C
S11301F06400F2013083F70150832883F101908376
S11302007093620060936300852F90E0DC01A45931
S1130210BF4F2C91F0E82F9F900111242C6022BB3A
S1130220DC01A958BF4F8C9188BB83E397E0019709
S1130230F1F7F201808190E0DC01A459BF4F2C91C9
S1130240F0E82F9F90011124246122BBDC01A958FE
S1130250BF4F8C9188BB83E397E00197F1F78881C6
S113026090E0DC01A459BF4F2C91E0E82E9F90014F
S11302701124246222BBDC01A958BF4F8C9188BB96
S113028083E397E00197F1F7F101808190E0DC01CD
S1130290A459BF4F2C91F0E82F9F9001112424649E
S11302A022BBDC01A958BF4F8C9188BB83E397E044
S11302B00197F1F72DCF1F920F920FB60F921124D1
S11302C02F933F934F935F938F939F93EF93FF935A
S11302D083B38F7080936B0090916100911109C07A
S11302E08B3020F481E0809364005AC01092640043
S11302F003C08B3008F454C08B3041F481E0809308
S1130300630019BE86EA82BF1092610080916B007F
S11303108C3009F040C081E080936100E7E6F0E0B2
S11303208BE690E020812A3009F410823196E81798
S1130330F907C1F72091670088EE93E0289FA00198
S1130340299F500D11248091680094E6899F400DE7
S1130350511D11248091690090E09C01220F331FEC
S1130360C901880F991F880F991F280F391FCA01C7
S1130370820F931F20916A00820F911D9093660053
S113038080936500892B29F089B7816089BFAC9A75
S113039002C0109261008AE080936B0010926400A6
S11303A0FF91EF919F918F915F914F913F912F9189
S11303B00F900FBE0F901F9018951F920F920FB6BB
S11303C00F9211248F939F93809160008F5F80938D
S11303D060008832A9F480916500909166000197CD
S11303E09093660080936500892B29F419BE1092BE
S11303F061008FE085BB81E0809362001092600011
S113040086EA82BF9F918F910F900FBE0F901F902D
S11304101895A29FB001B39FC001A39F01D0B29FC2
S1110420700D811D1124911D0895F894FFCFD5
S9030000FC
